{
	"data": {
		"bytecode": {
			"linkReferences": {},
			"object": "608060405260015f55348015610013575f80fd5b5061178f806100215f395ff3fe608060405234801561000f575f80fd5b5060043610610086575f3560e01c8063a6980ce211610059578063a6980ce214610128578063c25f73bd14610146578063d9548e5314610176578063e6cc0814146101a657610086565b8063195c77f41461008a578063618e7bd9146100ba57806370bc88ad146100f0578063818a56711461010c575b5f80fd5b6100a4600480360381019061009f9190610b1b565b6101c2565b6040516100b19190610b60565b60405180910390f35b6100d460048036038101906100cf9190610b1b565b6101ed565b6040516100e79796959493929190610c52565b60405180910390f35b61010a60048036038101906101059190610b1b565b610263565b005b61012660048036038101906101219190610dfb565b6103a2565b005b610130610647565b60405161013d9190610e55565b60405180910390f35b610160600480360381019061015b9190610f86565b61064c565b60405161016d9190610e55565b60405180910390f35b610190600480360381019061018b9190610b1b565b6107cc565b60405161019d9190610b60565b60405180910390f35b6101c060048036038101906101bb9190610b1b565b6107f0565b005b5f8060015f8481526020019081526020015f2090508060020180549050816008015414915050919050565b6001602052805f5260405f205f91509050805f015490806001015f9054906101000a900473ffffffffffffffffffffffffffffffffffffffff1690806003015490806004015490806007015f9054906101000a900460ff16908060070160019054906101000a900460ff16908060080154905087565b5f60015f8381526020019081526020015f209050610281813361098e565b6102c0576040517f08c379a00000000000000000000000000000000000000000000000000000000081526004016102b790611086565b60405180910390fd5b600160058111156102d4576102d3610bdf565b5b8160070160019054906101000a900460ff1660058111156102f8576102f7610bdf565b5b14610338576040517f08c379a000000000000000000000000000000000000000000000000000000000815260040161032f906110ee565b60405180910390fd5b60048160070160016101000a81548160ff021916908360058111156103605761035f610bdf565b5b02179055507f17e2a9ce2c7f7c63c79e91d790fc2b1d9f0bb4d684e81569e2ffd37104144626823360405161039692919061110c565b60405180910390a15050565b5f60015f8481526020019081526020015f209050600160058111156103ca576103c9610bdf565b5b8160070160019054906101000a900460ff1660058111156103ee576103ed610bdf565b5b1461042e576040517f08c379a0000000000000000000000000000000000000000000000000000000008152600401610425906110ee565b60405180910390fd5b610438813361098e565b610477576040517f08c379a000000000000000000000000000000000000000000000000000000000815260040161046e90611086565b60405180910390fd5b806006015f3373ffffffffffffffffffffffffffffffffffffffff1673ffffffffffffffffffffffffffffffffffffffff1681526020019081526020015f205f9054906101000a900460ff1615610503576040517f08c379a00000000000000000000000000000000000000000000000000000000081526004016104fa9061117d565b60405180910390fd5b61050c836107cc565b1561054c576040517f08c379a0000000000000000000000000000000000000000000000000000000008152600401610543906111e5565b60405180910390fd5b81816005015f3373ffffffffffffffffffffffffffffffffffffffff1673ffffffffffffffffffffffffffffffffffffffff1681526020019081526020015f2090816105989190611407565b506001816006015f3373ffffffffffffffffffffffffffffffffffffffff1673ffffffffffffffffffffffffffffffffffffffff1681526020019081526020015f205f6101000a81548160ff021916908315150217905550806008015f81548092919061060490611503565b91905055507f129186ccc801dd6a8b4b79a2b285d2cecfb046d77787e1c4164c67972479d944833360405161063a92919061110c565b60405180910390a1505050565b600a81565b5f80845111801561065f5750600a845111155b61069e576040517f08c379a000000000000000000000000000000000000000000000000000000000815260040161069590611594565b60405180910390fd5b5f60015f805481526020019081526020015f20905085815f018190555033816001015f6101000a81548173ffffffffffffffffffffffffffffffffffffffff021916908373ffffffffffffffffffffffffffffffffffffffff16021790555084816002019080519060200190610715929190610a35565b508381600301819055508281600401819055505f8160070160016101000a81548160ff0219169083600581111561074f5761074e610bdf565b5b02179055505f81600801819055507fa4cadedeb36e9c4edc3252748525178d5eae69fa2b8a7862b274441fe82e0efe5f54338887876040516107959594939291906115b2565b60405180910390a15f808154809291906107ae90611503565b919050555060015f546107c19190611603565b915050949350505050565b5f8060015f8481526020019081526020015f20905080600401544211915050919050565b5f60015f8381526020019081526020015f209050806001015f9054906101000a900473ffffffffffffffffffffffffffffffffffffffff1673ffffffffffffffffffffffffffffffffffffffff163373ffffffffffffffffffffffffffffffffffffffff1614610895576040517f08c379a000000000000000000000000000000000000000000000000000000000815260040161088c90611680565b60405180910390fd5b61089e826101c2565b6108dd576040517f08c379a00000000000000000000000000000000000000000000000000000000081526004016108d49061170e565b60405180910390fd5b6108e6826107cc565b15610926576040517f08c379a000000000000000000000000000000000000000000000000000000000815260040161091d906111e5565b60405180910390fd5b60038160070160016101000a81548160ff0219169083600581111561094e5761094d610bdf565b5b02179055507f217feee31d245d02320b9d4e5db8d34eaf295143abe94393808c906566839815826040516109829190610e55565b60405180910390a15050565b5f805f90505b8360020180549050811015610a2a578273ffffffffffffffffffffffffffffffffffffffff168460020182815481106109d0576109cf61172c565b5b905f5260205f20015f9054906101000a900473ffffffffffffffffffffffffffffffffffffffff1673ffffffffffffffffffffffffffffffffffffffff1603610a1d576001915050610a2f565b8080600101915050610994565b505f90505b92915050565b828054828255905f5260205f20908101928215610aab579160200282015b82811115610aaa578251825f6101000a81548173ffffffffffffffffffffffffffffffffffffffff021916908373ffffffffffffffffffffffffffffffffffffffff16021790555091602001919060010190610a53565b5b509050610ab89190610abc565b5090565b5b80821115610ad3575f815f905550600101610abd565b5090565b5f604051905090565b5f80fd5b5f80fd5b5f819050919050565b610afa81610ae8565b8114610b04575f80fd5b50565b5f81359050610b1581610af1565b92915050565b5f60208284031215610b3057610b2f610ae0565b5b5f610b3d84828501610b07565b91505092915050565b5f8115159050919050565b610b5a81610b46565b82525050565b5f602082019050610b735f830184610b51565b92915050565b610b8281610ae8565b82525050565b5f73ffffffffffffffffffffffffffffffffffffffff82169050919050565b5f610bb182610b88565b9050919050565b610bc181610ba7565b82525050565b5f819050919050565b610bd981610bc7565b82525050565b7f4e487b71000000000000000000000000000000000000000000000000000000005f52602160045260245ffd5b60068110610c1d57610c1c610bdf565b5b50565b5f819050610c2d82610c0c565b919050565b5f610c3c82610c20565b9050919050565b610c4c81610c32565b82525050565b5f60e082019050610c655f83018a610b79565b610c726020830189610bb8565b610c7f6040830188610bd0565b610c8c6060830187610b79565b610c996080830186610b51565b610ca660a0830185610c43565b610cb360c0830184610b79565b98975050505050505050565b5f80fd5b5f80fd5b5f601f19601f8301169050919050565b7f4e487b71000000000000000000000000000000000000000000000000000000005f52604160045260245ffd5b610d0d82610cc7565b810181811067ffffffffffffffff82111715610d2c57610d2b610cd7565b5b80604052505050565b5f610d3e610ad7565b9050610d4a8282610d04565b919050565b5f67ffffffffffffffff821115610d6957610d68610cd7565b5b610d7282610cc7565b9050602081019050919050565b828183375f83830152505050565b5f610d9f610d9a84610d4f565b610d35565b905082815260208101848484011115610dbb57610dba610cc3565b5b610dc6848285610d7f565b509392505050565b5f82601f830112610de257610de1610cbf565b5b8135610df2848260208601610d8d565b91505092915050565b5f8060408385031215610e1157610e10610ae0565b5b5f610e1e85828601610b07565b925050602083013567ffffffffffffffff811115610e3f57610e3e610ae4565b5b610e4b85828601610dce565b9150509250929050565b5f602082019050610e685f830184610b79565b92915050565b5f67ffffffffffffffff821115610e8857610e87610cd7565b5b602082029050602081019050919050565b5f80fd5b610ea681610ba7565b8114610eb0575f80fd5b50565b5f81359050610ec181610e9d565b92915050565b5f610ed9610ed484610e6e565b610d35565b90508083825260208201905060208402830185811115610efc57610efb610e99565b5b835b81811015610f255780610f118882610eb3565b845260208401935050602081019050610efe565b5050509392505050565b5f82601f830112610f4357610f42610cbf565b5b8135610f53848260208601610ec7565b91505092915050565b610f6581610bc7565b8114610f6f575f80fd5b50565b5f81359050610f8081610f5c565b92915050565b5f805f8060808587031215610f9e57610f9d610ae0565b5b5f610fab87828801610b07565b945050602085013567ffffffffffffffff811115610fcc57610fcb610ae4565b5b610fd887828801610f2f565b9350506040610fe987828801610f72565b9250506060610ffa87828801610b07565b91505092959194509250565b5f82825260208201905092915050565b7f53656e646572206973206e6f74206120726563697069656e74206f66207468655f8201527f20636865636b0000000000000000000000000000000000000000000000000000602082015250565b5f611070602683611006565b915061107b82611016565b604082019050919050565b5f6020820190508181035f83015261109d81611064565b9050919050565b7f436865636b206973206e6f7420697373756564207965740000000000000000005f82015250565b5f6110d8601783611006565b91506110e3826110a4565b602082019050919050565b5f6020820190508181035f830152611105816110cc565b9050919050565b5f60408201905061111f5f830185610b79565b61112c6020830184610bb8565b9392505050565b7f416c7265616479207369676e65640000000000000000000000000000000000005f82015250565b5f611167600e83611006565b915061117282611133565b602082019050919050565b5f6020820190508181035f8301526111948161115b565b9050919050565b7f436865636b2068617320657870697265640000000000000000000000000000005f82015250565b5f6111cf601183611006565b91506111da8261119b565b602082019050919050565b5f6020820190508181035f8301526111fc816111c3565b9050919050565b5f81519050919050565b7f4e487b71000000000000000000000000000000000000000000000000000000005f52602260045260245ffd5b5f600282049050600182168061125157607f821691505b6020821081036112645761126361120d565b5b50919050565b5f819050815f5260205f209050919050565b5f6020601f8301049050919050565b5f82821b905092915050565b5f600883026112c67fffffffffffffffffffffffffffffffffffffffffffffffffffffffffffffffff8261128b565b6112d0868361128b565b95508019841693508086168417925050509392505050565b5f819050919050565b5f61130b61130661130184610ae8565b6112e8565b610ae8565b9050919050565b5f819050919050565b611324836112f1565b61133861133082611312565b848454611297565b825550505050565b5f90565b61134c611340565b61135781848461131b565b505050565b5b8181101561137a5761136f5f82611344565b60018101905061135d565b5050565b601f8211156113bf576113908161126a565b6113998461127c565b810160208510156113a8578190505b6113bc6113b48561127c565b83018261135c565b50505b505050565b5f82821c905092915050565b5f6113df5f19846008026113c4565b1980831691505092915050565b5f6113f783836113d0565b9150826002028217905092915050565b61141082611203565b67ffffffffffffffff81111561142957611428610cd7565b5b611433825461123a565b61143e82828561137e565b5f60209050601f83116001811461146f575f841561145d578287015190505b61146785826113ec565b8655506114ce565b601f19841661147d8661126a565b5f5b828110156114a45784890151825560018201915060208501945060208101905061147f565b868310156114c157848901516114bd601f8916826113d0565b8355505b6001600288020188555050505b505050505050565b7f4e487b71000000000000000000000000000000000000000000000000000000005f52601160045260245ffd5b5f61150d82610ae8565b91507fffffffffffffffffffffffffffffffffffffffffffffffffffffffffffffffff820361153f5761153e6114d6565b5b600182019050919050565b7f496e76616c6964206e756d626572206f6620726563697069656e7473000000005f82015250565b5f61157e601c83611006565b91506115898261154a565b602082019050919050565b5f6020820190508181035f8301526115ab81611572565b9050919050565b5f60a0820190506115c55f830188610b79565b6115d26020830187610bb8565b6115df6040830186610b79565b6115ec6060830185610bd0565b6115f96080830184610b79565b9695505050505050565b5f61160d82610ae8565b915061161883610ae8565b92508282039050818111156116305761162f6114d6565b5b92915050565b7f4f6e6c79206973737565722063616e206163636570742074686520636865636b5f82015250565b5f61166a602083611006565b915061167582611636565b602082019050919050565b5f6020820190508181035f8301526116978161165e565b9050919050565b7f4e6f7420616c6c20726563697069656e74732068617665207369676e656420745f8201527f686520636865636b000000000000000000000000000000000000000000000000602082015250565b5f6116f8602883611006565b91506117038261169e565b604082019050919050565b5f6020820190508181035f830152611725816116ec565b9050919050565b7f4e487b71000000000000000000000000000000000000000000000000000000005f52603260045260245ffdfea2646970667358221220b470d626cf473834c9a20f65bec8f24ea4b706d837355e395ce27ce88b64675a64736f6c63430008170033",
			"opcodes": "PUSH1 0x80 PUSH1 0x40 MSTORE PUSH1 0x1 PUSH0 SSTORE CALLVALUE DUP1 ISZERO PUSH2 0x13 JUMPI PUSH0 DUP1 REVERT JUMPDEST POP PUSH2 0x178F DUP1 PUSH2 0x21 PUSH0 CODECOPY PUSH0 RETURN INVALID PUSH1 0x80 PUSH1 0x40 MSTORE CALLVALUE DUP1 ISZERO PUSH2 0xF JUMPI PUSH0 DUP1 REVERT JUMPDEST POP PUSH1 0x4 CALLDATASIZE LT PUSH2 0x86 JUMPI PUSH0 CALLDATALOAD PUSH1 0xE0 SHR DUP1 PUSH4 0xA6980CE2 GT PUSH2 0x59 JUMPI DUP1 PUSH4 0xA6980CE2 EQ PUSH2 0x128 JUMPI DUP1 PUSH4 0xC25F73BD EQ PUSH2 0x146 JUMPI DUP1 PUSH4 0xD9548E53 EQ PUSH2 0x176 JUMPI DUP1 PUSH4 0xE6CC0814 EQ PUSH2 0x1A6 JUMPI PUSH2 0x86 JUMP JUMPDEST DUP1 PUSH4 0x195C77F4 EQ PUSH2 0x8A JUMPI DUP1 PUSH4 0x618E7BD9 EQ PUSH2 0xBA JUMPI DUP1 PUSH4 0x70BC88AD EQ PUSH2 0xF0 JUMPI DUP1 PUSH4 0x818A5671 EQ PUSH2 0x10C JUMPI JUMPDEST PUSH0 DUP1 REVERT JUMPDEST PUSH2 0xA4 PUSH1 0x4 DUP1 CALLDATASIZE SUB DUP2 ADD SWAP1 PUSH2 0x9F SWAP2 SWAP1 PUSH2 0xB1B JUMP JUMPDEST PUSH2 0x1C2 JUMP JUMPDEST PUSH1 0x40 MLOAD PUSH2 0xB1 SWAP2 SWAP1 PUSH2 0xB60 JUMP JUMPDEST PUSH1 0x40 MLOAD DUP1 SWAP2 SUB SWAP1 RETURN JUMPDEST PUSH2 0xD4 PUSH1 0x4 DUP1 CALLDATASIZE SUB DUP2 ADD SWAP1 PUSH2 0xCF SWAP2 SWAP1 PUSH2 0xB1B JUMP JUMPDEST PUSH2 0x1ED JUMP JUMPDEST PUSH1 0x40 MLOAD PUSH2 0xE7 SWAP8 SWAP7 SWAP6 SWAP5 SWAP4 SWAP3 SWAP2 SWAP1 PUSH2 0xC52 JUMP JUMPDEST PUSH1 0x40 MLOAD DUP1 SWAP2 SUB SWAP1 RETURN JUMPDEST PUSH2 0x10A PUSH1 0x4 DUP1 CALLDATASIZE SUB DUP2 ADD SWAP1 PUSH2 0x105 SWAP2 SWAP1 PUSH2 0xB1B JUMP JUMPDEST PUSH2 0x263 JUMP JUMPDEST STOP JUMPDEST PUSH2 0x126 PUSH1 0x4 DUP1 CALLDATASIZE SUB DUP2 ADD SWAP1 PUSH2 0x121 SWAP2 SWAP1 PUSH2 0xDFB JUMP JUMPDEST PUSH2 0x3A2 JUMP JUMPDEST STOP JUMPDEST PUSH2 0x130 PUSH2 0x647 JUMP JUMPDEST PUSH1 0x40 MLOAD PUSH2 0x13D SWAP2 SWAP1 PUSH2 0xE55 JUMP JUMPDEST PUSH1 0x40 MLOAD DUP1 SWAP2 SUB SWAP1 RETURN JUMPDEST PUSH2 0x160 PUSH1 0x4 DUP1 CALLDATASIZE SUB DUP2 ADD SWAP1 PUSH2 0x15B SWAP2 SWAP1 PUSH2 0xF86 JUMP JUMPDEST PUSH2 0x64C JUMP JUMPDEST PUSH1 0x40 MLOAD PUSH2 0x16D SWAP2 SWAP1 PUSH2 0xE55 JUMP JUMPDEST PUSH1 0x40 MLOAD DUP1 SWAP2 SUB SWAP1 RETURN JUMPDEST PUSH2 0x190 PUSH1 0x4 DUP1 CALLDATASIZE SUB DUP2 ADD SWAP1 PUSH2 0x18B SWAP2 SWAP1 PUSH2 0xB1B JUMP JUMPDEST PUSH2 0x7CC JUMP JUMPDEST PUSH1 0x40 MLOAD PUSH2 0x19D SWAP2 SWAP1 PUSH2 0xB60 JUMP JUMPDEST PUSH1 0x40 MLOAD DUP1 SWAP2 SUB SWAP1 RETURN JUMPDEST PUSH2 0x1C0 PUSH1 0x4 DUP1 CALLDATASIZE SUB DUP2 ADD SWAP1 PUSH2 0x1BB SWAP2 SWAP1 PUSH2 0xB1B JUMP JUMPDEST PUSH2 0x7F0 JUMP JUMPDEST STOP JUMPDEST PUSH0 DUP1 PUSH1 0x1 PUSH0 DUP5 DUP2 MSTORE PUSH1 0x20 ADD SWAP1 DUP2 MSTORE PUSH1 0x20 ADD PUSH0 KECCAK256 SWAP1 POP DUP1 PUSH1 0x2 ADD DUP1 SLOAD SWAP1 POP DUP2 PUSH1 0x8 ADD SLOAD EQ SWAP2 POP POP SWAP2 SWAP1 POP JUMP JUMPDEST PUSH1 0x1 PUSH1 0x20 MSTORE DUP1 PUSH0 MSTORE PUSH1 0x40 PUSH0 KECCAK256 PUSH0 SWAP2 POP SWAP1 POP DUP1 PUSH0 ADD SLOAD SWAP1 DUP1 PUSH1 0x1 ADD PUSH0 SWAP1 SLOAD SWAP1 PUSH2 0x100 EXP SWAP1 DIV PUSH20 0xFFFFFFFFFFFFFFFFFFFFFFFFFFFFFFFFFFFFFFFF AND SWAP1 DUP1 PUSH1 0x3 ADD SLOAD SWAP1 DUP1 PUSH1 0x4 ADD SLOAD SWAP1 DUP1 PUSH1 0x7 ADD PUSH0 SWAP1 SLOAD SWAP1 PUSH2 0x100 EXP SWAP1 DIV PUSH1 0xFF AND SWAP1 DUP1 PUSH1 0x7 ADD PUSH1 0x1 SWAP1 SLOAD SWAP1 PUSH2 0x100 EXP SWAP1 DIV PUSH1 0xFF AND SWAP1 DUP1 PUSH1 0x8 ADD SLOAD SWAP1 POP DUP8 JUMP JUMPDEST PUSH0 PUSH1 0x1 PUSH0 DUP4 DUP2 MSTORE PUSH1 0x20 ADD SWAP1 DUP2 MSTORE PUSH1 0x20 ADD PUSH0 KECCAK256 SWAP1 POP PUSH2 0x281 DUP2 CALLER PUSH2 0x98E JUMP JUMPDEST PUSH2 0x2C0 JUMPI PUSH1 0x40 MLOAD PUSH32 0x8C379A000000000000000000000000000000000000000000000000000000000 DUP2 MSTORE PUSH1 0x4 ADD PUSH2 0x2B7 SWAP1 PUSH2 0x1086 JUMP JUMPDEST PUSH1 0x40 MLOAD DUP1 SWAP2 SUB SWAP1 REVERT JUMPDEST PUSH1 0x1 PUSH1 0x5 DUP2 GT ISZERO PUSH2 0x2D4 JUMPI PUSH2 0x2D3 PUSH2 0xBDF JUMP JUMPDEST JUMPDEST DUP2 PUSH1 0x7 ADD PUSH1 0x1 SWAP1 SLOAD SWAP1 PUSH2 0x100 EXP SWAP1 DIV PUSH1 0xFF AND PUSH1 0x5 DUP2 GT ISZERO PUSH2 0x2F8 JUMPI PUSH2 0x2F7 PUSH2 0xBDF JUMP JUMPDEST JUMPDEST EQ PUSH2 0x338 JUMPI PUSH1 0x40 MLOAD PUSH32 0x8C379A000000000000000000000000000000000000000000000000000000000 DUP2 MSTORE PUSH1 0x4 ADD PUSH2 0x32F SWAP1 PUSH2 0x10EE JUMP JUMPDEST PUSH1 0x40 MLOAD DUP1 SWAP2 SUB SWAP1 REVERT JUMPDEST PUSH1 0x4 DUP2 PUSH1 0x7 ADD PUSH1 0x1 PUSH2 0x100 EXP DUP2 SLOAD DUP2 PUSH1 0xFF MUL NOT AND SWAP1 DUP4 PUSH1 0x5 DUP2 GT ISZERO PUSH2 0x360 JUMPI PUSH2 0x35F PUSH2 0xBDF JUMP JUMPDEST JUMPDEST MUL OR SWAP1 SSTORE POP PUSH32 0x17E2A9CE2C7F7C63C79E91D790FC2B1D9F0BB4D684E81569E2FFD37104144626 DUP3 CALLER PUSH1 0x40 MLOAD PUSH2 0x396 SWAP3 SWAP2 SWAP1 PUSH2 0x110C JUMP JUMPDEST PUSH1 0x40 MLOAD DUP1 SWAP2 SUB SWAP1 LOG1 POP POP JUMP JUMPDEST PUSH0 PUSH1 0x1 PUSH0 DUP5 DUP2 MSTORE PUSH1 0x20 ADD SWAP1 DUP2 MSTORE PUSH1 0x20 ADD PUSH0 KECCAK256 SWAP1 POP PUSH1 0x1 PUSH1 0x5 DUP2 GT ISZERO PUSH2 0x3CA JUMPI PUSH2 0x3C9 PUSH2 0xBDF JUMP JUMPDEST JUMPDEST DUP2 PUSH1 0x7 ADD PUSH1 0x1 SWAP1 SLOAD SWAP1 PUSH2 0x100 EXP SWAP1 DIV PUSH1 0xFF AND PUSH1 0x5 DUP2 GT ISZERO PUSH2 0x3EE JUMPI PUSH2 0x3ED PUSH2 0xBDF JUMP JUMPDEST JUMPDEST EQ PUSH2 0x42E JUMPI PUSH1 0x40 MLOAD PUSH32 0x8C379A000000000000000000000000000000000000000000000000000000000 DUP2 MSTORE PUSH1 0x4 ADD PUSH2 0x425 SWAP1 PUSH2 0x10EE JUMP JUMPDEST PUSH1 0x40 MLOAD DUP1 SWAP2 SUB SWAP1 REVERT JUMPDEST PUSH2 0x438 DUP2 CALLER PUSH2 0x98E JUMP JUMPDEST PUSH2 0x477 JUMPI PUSH1 0x40 MLOAD PUSH32 0x8C379A000000000000000000000000000000000000000000000000000000000 DUP2 MSTORE PUSH1 0x4 ADD PUSH2 0x46E SWAP1 PUSH2 0x1086 JUMP JUMPDEST PUSH1 0x40 MLOAD DUP1 SWAP2 SUB SWAP1 REVERT JUMPDEST DUP1 PUSH1 0x6 ADD PUSH0 CALLER PUSH20 0xFFFFFFFFFFFFFFFFFFFFFFFFFFFFFFFFFFFFFFFF AND PUSH20 0xFFFFFFFFFFFFFFFFFFFFFFFFFFFFFFFFFFFFFFFF AND DUP2 MSTORE PUSH1 0x20 ADD SWAP1 DUP2 MSTORE PUSH1 0x20 ADD PUSH0 KECCAK256 PUSH0 SWAP1 SLOAD SWAP1 PUSH2 0x100 EXP SWAP1 DIV PUSH1 0xFF AND ISZERO PUSH2 0x503 JUMPI PUSH1 0x40 MLOAD PUSH32 0x8C379A000000000000000000000000000000000000000000000000000000000 DUP2 MSTORE PUSH1 0x4 ADD PUSH2 0x4FA SWAP1 PUSH2 0x117D JUMP JUMPDEST PUSH1 0x40 MLOAD DUP1 SWAP2 SUB SWAP1 REVERT JUMPDEST PUSH2 0x50C DUP4 PUSH2 0x7CC JUMP JUMPDEST ISZERO PUSH2 0x54C JUMPI PUSH1 0x40 MLOAD PUSH32 0x8C379A000000000000000000000000000000000000000000000000000000000 DUP2 MSTORE PUSH1 0x4 ADD PUSH2 0x543 SWAP1 PUSH2 0x11E5 JUMP JUMPDEST PUSH1 0x40 MLOAD DUP1 SWAP2 SUB SWAP1 REVERT JUMPDEST DUP2 DUP2 PUSH1 0x5 ADD PUSH0 CALLER PUSH20 0xFFFFFFFFFFFFFFFFFFFFFFFFFFFFFFFFFFFFFFFF AND PUSH20 0xFFFFFFFFFFFFFFFFFFFFFFFFFFFFFFFFFFFFFFFF AND DUP2 MSTORE PUSH1 0x20 ADD SWAP1 DUP2 MSTORE PUSH1 0x20 ADD PUSH0 KECCAK256 SWAP1 DUP2 PUSH2 0x598 SWAP2 SWAP1 PUSH2 0x1407 JUMP JUMPDEST POP PUSH1 0x1 DUP2 PUSH1 0x6 ADD PUSH0 CALLER PUSH20 0xFFFFFFFFFFFFFFFFFFFFFFFFFFFFFFFFFFFFFFFF AND PUSH20 0xFFFFFFFFFFFFFFFFFFFFFFFFFFFFFFFFFFFFFFFF AND DUP2 MSTORE PUSH1 0x20 ADD SWAP1 DUP2 MSTORE PUSH1 0x20 ADD PUSH0 KECCAK256 PUSH0 PUSH2 0x100 EXP DUP2 SLOAD DUP2 PUSH1 0xFF MUL NOT AND SWAP1 DUP4 ISZERO ISZERO MUL OR SWAP1 SSTORE POP DUP1 PUSH1 0x8 ADD PUSH0 DUP2 SLOAD DUP1 SWAP3 SWAP2 SWAP1 PUSH2 0x604 SWAP1 PUSH2 0x1503 JUMP JUMPDEST SWAP2 SWAP1 POP SSTORE POP PUSH32 0x129186CCC801DD6A8B4B79A2B285D2CECFB046D77787E1C4164C67972479D944 DUP4 CALLER PUSH1 0x40 MLOAD PUSH2 0x63A SWAP3 SWAP2 SWAP1 PUSH2 0x110C JUMP JUMPDEST PUSH1 0x40 MLOAD DUP1 SWAP2 SUB SWAP1 LOG1 POP POP POP JUMP JUMPDEST PUSH1 0xA DUP2 JUMP JUMPDEST PUSH0 DUP1 DUP5 MLOAD GT DUP1 ISZERO PUSH2 0x65F JUMPI POP PUSH1 0xA DUP5 MLOAD GT ISZERO JUMPDEST PUSH2 0x69E JUMPI PUSH1 0x40 MLOAD PUSH32 0x8C379A000000000000000000000000000000000000000000000000000000000 DUP2 MSTORE PUSH1 0x4 ADD PUSH2 0x695 SWAP1 PUSH2 0x1594 JUMP JUMPDEST PUSH1 0x40 MLOAD DUP1 SWAP2 SUB SWAP1 REVERT JUMPDEST PUSH0 PUSH1 0x1 PUSH0 DUP1 SLOAD DUP2 MSTORE PUSH1 0x20 ADD SWAP1 DUP2 MSTORE PUSH1 0x20 ADD PUSH0 KECCAK256 SWAP1 POP DUP6 DUP2 PUSH0 ADD DUP2 SWAP1 SSTORE POP CALLER DUP2 PUSH1 0x1 ADD PUSH0 PUSH2 0x100 EXP DUP2 SLOAD DUP2 PUSH20 0xFFFFFFFFFFFFFFFFFFFFFFFFFFFFFFFFFFFFFFFF MUL NOT AND SWAP1 DUP4 PUSH20 0xFFFFFFFFFFFFFFFFFFFFFFFFFFFFFFFFFFFFFFFF AND MUL OR SWAP1 SSTORE POP DUP5 DUP2 PUSH1 0x2 ADD SWAP1 DUP1 MLOAD SWAP1 PUSH1 0x20 ADD SWAP1 PUSH2 0x715 SWAP3 SWAP2 SWAP1 PUSH2 0xA35 JUMP JUMPDEST POP DUP4 DUP2 PUSH1 0x3 ADD DUP2 SWAP1 SSTORE POP DUP3 DUP2 PUSH1 0x4 ADD DUP2 SWAP1 SSTORE POP PUSH0 DUP2 PUSH1 0x7 ADD PUSH1 0x1 PUSH2 0x100 EXP DUP2 SLOAD DUP2 PUSH1 0xFF MUL NOT AND SWAP1 DUP4 PUSH1 0x5 DUP2 GT ISZERO PUSH2 0x74F JUMPI PUSH2 0x74E PUSH2 0xBDF JUMP JUMPDEST JUMPDEST MUL OR SWAP1 SSTORE POP PUSH0 DUP2 PUSH1 0x8 ADD DUP2 SWAP1 SSTORE POP PUSH32 0xA4CADEDEB36E9C4EDC3252748525178D5EAE69FA2B8A7862B274441FE82E0EFE PUSH0 SLOAD CALLER DUP9 DUP8 DUP8 PUSH1 0x40 MLOAD PUSH2 0x795 SWAP6 SWAP5 SWAP4 SWAP3 SWAP2 SWAP1 PUSH2 0x15B2 JUMP JUMPDEST PUSH1 0x40 MLOAD DUP1 SWAP2 SUB SWAP1 LOG1 PUSH0 DUP1 DUP2 SLOAD DUP1 SWAP3 SWAP2 SWAP1 PUSH2 0x7AE SWAP1 PUSH2 0x1503 JUMP JUMPDEST SWAP2 SWAP1 POP SSTORE POP PUSH1 0x1 PUSH0 SLOAD PUSH2 0x7C1 SWAP2 SWAP1 PUSH2 0x1603 JUMP JUMPDEST SWAP2 POP POP SWAP5 SWAP4 POP POP POP POP JUMP JUMPDEST PUSH0 DUP1 PUSH1 0x1 PUSH0 DUP5 DUP2 MSTORE PUSH1 0x20 ADD SWAP1 DUP2 MSTORE PUSH1 0x20 ADD PUSH0 KECCAK256 SWAP1 POP DUP1 PUSH1 0x4 ADD SLOAD TIMESTAMP GT SWAP2 POP POP SWAP2 SWAP1 POP JUMP JUMPDEST PUSH0 PUSH1 0x1 PUSH0 DUP4 DUP2 MSTORE PUSH1 0x20 ADD SWAP1 DUP2 MSTORE PUSH1 0x20 ADD PUSH0 KECCAK256 SWAP1 POP DUP1 PUSH1 0x1 ADD PUSH0 SWAP1 SLOAD SWAP1 PUSH2 0x100 EXP SWAP1 DIV PUSH20 0xFFFFFFFFFFFFFFFFFFFFFFFFFFFFFFFFFFFFFFFF AND PUSH20 0xFFFFFFFFFFFFFFFFFFFFFFFFFFFFFFFFFFFFFFFF AND CALLER PUSH20 0xFFFFFFFFFFFFFFFFFFFFFFFFFFFFFFFFFFFFFFFF AND EQ PUSH2 0x895 JUMPI PUSH1 0x40 MLOAD PUSH32 0x8C379A000000000000000000000000000000000000000000000000000000000 DUP2 MSTORE PUSH1 0x4 ADD PUSH2 0x88C SWAP1 PUSH2 0x1680 JUMP JUMPDEST PUSH1 0x40 MLOAD DUP1 SWAP2 SUB SWAP1 REVERT JUMPDEST PUSH2 0x89E DUP3 PUSH2 0x1C2 JUMP JUMPDEST PUSH2 0x8DD JUMPI PUSH1 0x40 MLOAD PUSH32 0x8C379A000000000000000000000000000000000000000000000000000000000 DUP2 MSTORE PUSH1 0x4 ADD PUSH2 0x8D4 SWAP1 PUSH2 0x170E JUMP JUMPDEST PUSH1 0x40 MLOAD DUP1 SWAP2 SUB SWAP1 REVERT JUMPDEST PUSH2 0x8E6 DUP3 PUSH2 0x7CC JUMP JUMPDEST ISZERO PUSH2 0x926 JUMPI PUSH1 0x40 MLOAD PUSH32 0x8C379A000000000000000000000000000000000000000000000000000000000 DUP2 MSTORE PUSH1 0x4 ADD PUSH2 0x91D SWAP1 PUSH2 0x11E5 JUMP JUMPDEST PUSH1 0x40 MLOAD DUP1 SWAP2 SUB SWAP1 REVERT JUMPDEST PUSH1 0x3 DUP2 PUSH1 0x7 ADD PUSH1 0x1 PUSH2 0x100 EXP DUP2 SLOAD DUP2 PUSH1 0xFF MUL NOT AND SWAP1 DUP4 PUSH1 0x5 DUP2 GT ISZERO PUSH2 0x94E JUMPI PUSH2 0x94D PUSH2 0xBDF JUMP JUMPDEST JUMPDEST MUL OR SWAP1 SSTORE POP PUSH32 0x217FEEE31D245D02320B9D4E5DB8D34EAF295143ABE94393808C906566839815 DUP3 PUSH1 0x40 MLOAD PUSH2 0x982 SWAP2 SWAP1 PUSH2 0xE55 JUMP JUMPDEST PUSH1 0x40 MLOAD DUP1 SWAP2 SUB SWAP1 LOG1 POP POP JUMP JUMPDEST PUSH0 DUP1 PUSH0 SWAP1 POP JUMPDEST DUP4 PUSH1 0x2 ADD DUP1 SLOAD SWAP1 POP DUP2 LT ISZERO PUSH2 0xA2A JUMPI DUP3 PUSH20 0xFFFFFFFFFFFFFFFFFFFFFFFFFFFFFFFFFFFFFFFF AND DUP5 PUSH1 0x2 ADD DUP3 DUP2 SLOAD DUP2 LT PUSH2 0x9D0 JUMPI PUSH2 0x9CF PUSH2 0x172C JUMP JUMPDEST JUMPDEST SWAP1 PUSH0 MSTORE PUSH1 0x20 PUSH0 KECCAK256 ADD PUSH0 SWAP1 SLOAD SWAP1 PUSH2 0x100 EXP SWAP1 DIV PUSH20 0xFFFFFFFFFFFFFFFFFFFFFFFFFFFFFFFFFFFFFFFF AND PUSH20 0xFFFFFFFFFFFFFFFFFFFFFFFFFFFFFFFFFFFFFFFF AND SUB PUSH2 0xA1D JUMPI PUSH1 0x1 SWAP2 POP POP PUSH2 0xA2F JUMP JUMPDEST DUP1 DUP1 PUSH1 0x1 ADD SWAP2 POP POP PUSH2 0x994 JUMP JUMPDEST POP PUSH0 SWAP1 POP JUMPDEST SWAP3 SWAP2 POP POP JUMP JUMPDEST DUP3 DUP1 SLOAD DUP3 DUP3 SSTORE SWAP1 PUSH0 MSTORE PUSH1 0x20 PUSH0 KECCAK256 SWAP1 DUP2 ADD SWAP3 DUP3 ISZERO PUSH2 0xAAB JUMPI SWAP2 PUSH1 0x20 MUL DUP3 ADD JUMPDEST DUP3 DUP2 GT ISZERO PUSH2 0xAAA JUMPI DUP3 MLOAD DUP3 PUSH0 PUSH2 0x100 EXP DUP2 SLOAD DUP2 PUSH20 0xFFFFFFFFFFFFFFFFFFFFFFFFFFFFFFFFFFFFFFFF MUL NOT AND SWAP1 DUP4 PUSH20 0xFFFFFFFFFFFFFFFFFFFFFFFFFFFFFFFFFFFFFFFF AND MUL OR SWAP1 SSTORE POP SWAP2 PUSH1 0x20 ADD SWAP2 SWAP1 PUSH1 0x1 ADD SWAP1 PUSH2 0xA53 JUMP JUMPDEST JUMPDEST POP SWAP1 POP PUSH2 0xAB8 SWAP2 SWAP1 PUSH2 0xABC JUMP JUMPDEST POP SWAP1 JUMP JUMPDEST JUMPDEST DUP1 DUP3 GT ISZERO PUSH2 0xAD3 JUMPI PUSH0 DUP2 PUSH0 SWAP1 SSTORE POP PUSH1 0x1 ADD PUSH2 0xABD JUMP JUMPDEST POP SWAP1 JUMP JUMPDEST PUSH0 PUSH1 0x40 MLOAD SWAP1 POP SWAP1 JUMP JUMPDEST PUSH0 DUP1 REVERT JUMPDEST PUSH0 DUP1 REVERT JUMPDEST PUSH0 DUP2 SWAP1 POP SWAP2 SWAP1 POP JUMP JUMPDEST PUSH2 0xAFA DUP2 PUSH2 0xAE8 JUMP JUMPDEST DUP2 EQ PUSH2 0xB04 JUMPI PUSH0 DUP1 REVERT JUMPDEST POP JUMP JUMPDEST PUSH0 DUP2 CALLDATALOAD SWAP1 POP PUSH2 0xB15 DUP2 PUSH2 0xAF1 JUMP JUMPDEST SWAP3 SWAP2 POP POP JUMP JUMPDEST PUSH0 PUSH1 0x20 DUP3 DUP5 SUB SLT ISZERO PUSH2 0xB30 JUMPI PUSH2 0xB2F PUSH2 0xAE0 JUMP JUMPDEST JUMPDEST PUSH0 PUSH2 0xB3D DUP5 DUP3 DUP6 ADD PUSH2 0xB07 JUMP JUMPDEST SWAP2 POP POP SWAP3 SWAP2 POP POP JUMP JUMPDEST PUSH0 DUP2 ISZERO ISZERO SWAP1 POP SWAP2 SWAP1 POP JUMP JUMPDEST PUSH2 0xB5A DUP2 PUSH2 0xB46 JUMP JUMPDEST DUP3 MSTORE POP POP JUMP JUMPDEST PUSH0 PUSH1 0x20 DUP3 ADD SWAP1 POP PUSH2 0xB73 PUSH0 DUP4 ADD DUP5 PUSH2 0xB51 JUMP JUMPDEST SWAP3 SWAP2 POP POP JUMP JUMPDEST PUSH2 0xB82 DUP2 PUSH2 0xAE8 JUMP JUMPDEST DUP3 MSTORE POP POP JUMP JUMPDEST PUSH0 PUSH20 0xFFFFFFFFFFFFFFFFFFFFFFFFFFFFFFFFFFFFFFFF DUP3 AND SWAP1 POP SWAP2 SWAP1 POP JUMP JUMPDEST PUSH0 PUSH2 0xBB1 DUP3 PUSH2 0xB88 JUMP JUMPDEST SWAP1 POP SWAP2 SWAP1 POP JUMP JUMPDEST PUSH2 0xBC1 DUP2 PUSH2 0xBA7 JUMP JUMPDEST DUP3 MSTORE POP POP JUMP JUMPDEST PUSH0 DUP2 SWAP1 POP SWAP2 SWAP1 POP JUMP JUMPDEST PUSH2 0xBD9 DUP2 PUSH2 0xBC7 JUMP JUMPDEST DUP3 MSTORE POP POP JUMP JUMPDEST PUSH32 0x4E487B7100000000000000000000000000000000000000000000000000000000 PUSH0 MSTORE PUSH1 0x21 PUSH1 0x4 MSTORE PUSH1 0x24 PUSH0 REVERT JUMPDEST PUSH1 0x6 DUP2 LT PUSH2 0xC1D JUMPI PUSH2 0xC1C PUSH2 0xBDF JUMP JUMPDEST JUMPDEST POP JUMP JUMPDEST PUSH0 DUP2 SWAP1 POP PUSH2 0xC2D DUP3 PUSH2 0xC0C JUMP JUMPDEST SWAP2 SWAP1 POP JUMP JUMPDEST PUSH0 PUSH2 0xC3C DUP3 PUSH2 0xC20 JUMP JUMPDEST SWAP1 POP SWAP2 SWAP1 POP JUMP JUMPDEST PUSH2 0xC4C DUP2 PUSH2 0xC32 JUMP JUMPDEST DUP3 MSTORE POP POP JUMP JUMPDEST PUSH0 PUSH1 0xE0 DUP3 ADD SWAP1 POP PUSH2 0xC65 PUSH0 DUP4 ADD DUP11 PUSH2 0xB79 JUMP JUMPDEST PUSH2 0xC72 PUSH1 0x20 DUP4 ADD DUP10 PUSH2 0xBB8 JUMP JUMPDEST PUSH2 0xC7F PUSH1 0x40 DUP4 ADD DUP9 PUSH2 0xBD0 JUMP JUMPDEST PUSH2 0xC8C PUSH1 0x60 DUP4 ADD DUP8 PUSH2 0xB79 JUMP JUMPDEST PUSH2 0xC99 PUSH1 0x80 DUP4 ADD DUP7 PUSH2 0xB51 JUMP JUMPDEST PUSH2 0xCA6 PUSH1 0xA0 DUP4 ADD DUP6 PUSH2 0xC43 JUMP JUMPDEST PUSH2 0xCB3 PUSH1 0xC0 DUP4 ADD DUP5 PUSH2 0xB79 JUMP JUMPDEST SWAP9 SWAP8 POP POP POP POP POP POP POP POP JUMP JUMPDEST PUSH0 DUP1 REVERT JUMPDEST PUSH0 DUP1 REVERT JUMPDEST PUSH0 PUSH1 0x1F NOT PUSH1 0x1F DUP4 ADD AND SWAP1 POP SWAP2 SWAP1 POP JUMP JUMPDEST PUSH32 0x4E487B7100000000000000000000000000000000000000000000000000000000 PUSH0 MSTORE PUSH1 0x41 PUSH1 0x4 MSTORE PUSH1 0x24 PUSH0 REVERT JUMPDEST PUSH2 0xD0D DUP3 PUSH2 0xCC7 JUMP JUMPDEST DUP2 ADD DUP2 DUP2 LT PUSH8 0xFFFFFFFFFFFFFFFF DUP3 GT OR ISZERO PUSH2 0xD2C JUMPI PUSH2 0xD2B PUSH2 0xCD7 JUMP JUMPDEST JUMPDEST DUP1 PUSH1 0x40 MSTORE POP POP POP JUMP JUMPDEST PUSH0 PUSH2 0xD3E PUSH2 0xAD7 JUMP JUMPDEST SWAP1 POP PUSH2 0xD4A DUP3 DUP3 PUSH2 0xD04 JUMP JUMPDEST SWAP2 SWAP1 POP JUMP JUMPDEST PUSH0 PUSH8 0xFFFFFFFFFFFFFFFF DUP3 GT ISZERO PUSH2 0xD69 JUMPI PUSH2 0xD68 PUSH2 0xCD7 JUMP JUMPDEST JUMPDEST PUSH2 0xD72 DUP3 PUSH2 0xCC7 JUMP JUMPDEST SWAP1 POP PUSH1 0x20 DUP2 ADD SWAP1 POP SWAP2 SWAP1 POP JUMP JUMPDEST DUP3 DUP2 DUP4 CALLDATACOPY PUSH0 DUP4 DUP4 ADD MSTORE POP POP POP JUMP JUMPDEST PUSH0 PUSH2 0xD9F PUSH2 0xD9A DUP5 PUSH2 0xD4F JUMP JUMPDEST PUSH2 0xD35 JUMP JUMPDEST SWAP1 POP DUP3 DUP2 MSTORE PUSH1 0x20 DUP2 ADD DUP5 DUP5 DUP5 ADD GT ISZERO PUSH2 0xDBB JUMPI PUSH2 0xDBA PUSH2 0xCC3 JUMP JUMPDEST JUMPDEST PUSH2 0xDC6 DUP5 DUP3 DUP6 PUSH2 0xD7F JUMP JUMPDEST POP SWAP4 SWAP3 POP POP POP JUMP JUMPDEST PUSH0 DUP3 PUSH1 0x1F DUP4 ADD SLT PUSH2 0xDE2 JUMPI PUSH2 0xDE1 PUSH2 0xCBF JUMP JUMPDEST JUMPDEST DUP2 CALLDATALOAD PUSH2 0xDF2 DUP5 DUP3 PUSH1 0x20 DUP7 ADD PUSH2 0xD8D JUMP JUMPDEST SWAP2 POP POP SWAP3 SWAP2 POP POP JUMP JUMPDEST PUSH0 DUP1 PUSH1 0x40 DUP4 DUP6 SUB SLT ISZERO PUSH2 0xE11 JUMPI PUSH2 0xE10 PUSH2 0xAE0 JUMP JUMPDEST JUMPDEST PUSH0 PUSH2 0xE1E DUP6 DUP3 DUP7 ADD PUSH2 0xB07 JUMP JUMPDEST SWAP3 POP POP PUSH1 0x20 DUP4 ADD CALLDATALOAD PUSH8 0xFFFFFFFFFFFFFFFF DUP2 GT ISZERO PUSH2 0xE3F JUMPI PUSH2 0xE3E PUSH2 0xAE4 JUMP JUMPDEST JUMPDEST PUSH2 0xE4B DUP6 DUP3 DUP7 ADD PUSH2 0xDCE JUMP JUMPDEST SWAP2 POP POP SWAP3 POP SWAP3 SWAP1 POP JUMP JUMPDEST PUSH0 PUSH1 0x20 DUP3 ADD SWAP1 POP PUSH2 0xE68 PUSH0 DUP4 ADD DUP5 PUSH2 0xB79 JUMP JUMPDEST SWAP3 SWAP2 POP POP JUMP JUMPDEST PUSH0 PUSH8 0xFFFFFFFFFFFFFFFF DUP3 GT ISZERO PUSH2 0xE88 JUMPI PUSH2 0xE87 PUSH2 0xCD7 JUMP JUMPDEST JUMPDEST PUSH1 0x20 DUP3 MUL SWAP1 POP PUSH1 0x20 DUP2 ADD SWAP1 POP SWAP2 SWAP1 POP JUMP JUMPDEST PUSH0 DUP1 REVERT JUMPDEST PUSH2 0xEA6 DUP2 PUSH2 0xBA7 JUMP JUMPDEST DUP2 EQ PUSH2 0xEB0 JUMPI PUSH0 DUP1 REVERT JUMPDEST POP JUMP JUMPDEST PUSH0 DUP2 CALLDATALOAD SWAP1 POP PUSH2 0xEC1 DUP2 PUSH2 0xE9D JUMP JUMPDEST SWAP3 SWAP2 POP POP JUMP JUMPDEST PUSH0 PUSH2 0xED9 PUSH2 0xED4 DUP5 PUSH2 0xE6E JUMP JUMPDEST PUSH2 0xD35 JUMP JUMPDEST SWAP1 POP DUP1 DUP4 DUP3 MSTORE PUSH1 0x20 DUP3 ADD SWAP1 POP PUSH1 0x20 DUP5 MUL DUP4 ADD DUP6 DUP2 GT ISZERO PUSH2 0xEFC JUMPI PUSH2 0xEFB PUSH2 0xE99 JUMP JUMPDEST JUMPDEST DUP4 JUMPDEST DUP2 DUP2 LT ISZERO PUSH2 0xF25 JUMPI DUP1 PUSH2 0xF11 DUP9 DUP3 PUSH2 0xEB3 JUMP JUMPDEST DUP5 MSTORE PUSH1 0x20 DUP5 ADD SWAP4 POP POP PUSH1 0x20 DUP2 ADD SWAP1 POP PUSH2 0xEFE JUMP JUMPDEST POP POP POP SWAP4 SWAP3 POP POP POP JUMP JUMPDEST PUSH0 DUP3 PUSH1 0x1F DUP4 ADD SLT PUSH2 0xF43 JUMPI PUSH2 0xF42 PUSH2 0xCBF JUMP JUMPDEST JUMPDEST DUP2 CALLDATALOAD PUSH2 0xF53 DUP5 DUP3 PUSH1 0x20 DUP7 ADD PUSH2 0xEC7 JUMP JUMPDEST SWAP2 POP POP SWAP3 SWAP2 POP POP JUMP JUMPDEST PUSH2 0xF65 DUP2 PUSH2 0xBC7 JUMP JUMPDEST DUP2 EQ PUSH2 0xF6F JUMPI PUSH0 DUP1 REVERT JUMPDEST POP JUMP JUMPDEST PUSH0 DUP2 CALLDATALOAD SWAP1 POP PUSH2 0xF80 DUP2 PUSH2 0xF5C JUMP JUMPDEST SWAP3 SWAP2 POP POP JUMP JUMPDEST PUSH0 DUP1 PUSH0 DUP1 PUSH1 0x80 DUP6 DUP8 SUB SLT ISZERO PUSH2 0xF9E JUMPI PUSH2 0xF9D PUSH2 0xAE0 JUMP JUMPDEST JUMPDEST PUSH0 PUSH2 0xFAB DUP8 DUP3 DUP9 ADD PUSH2 0xB07 JUMP JUMPDEST SWAP5 POP POP PUSH1 0x20 DUP6 ADD CALLDATALOAD PUSH8 0xFFFFFFFFFFFFFFFF DUP2 GT ISZERO PUSH2 0xFCC JUMPI PUSH2 0xFCB PUSH2 0xAE4 JUMP JUMPDEST JUMPDEST PUSH2 0xFD8 DUP8 DUP3 DUP9 ADD PUSH2 0xF2F JUMP JUMPDEST SWAP4 POP POP PUSH1 0x40 PUSH2 0xFE9 DUP8 DUP3 DUP9 ADD PUSH2 0xF72 JUMP JUMPDEST SWAP3 POP POP PUSH1 0x60 PUSH2 0xFFA DUP8 DUP3 DUP9 ADD PUSH2 0xB07 JUMP JUMPDEST SWAP2 POP POP SWAP3 SWAP6 SWAP2 SWAP5 POP SWAP3 POP JUMP JUMPDEST PUSH0 DUP3 DUP3 MSTORE PUSH1 0x20 DUP3 ADD SWAP1 POP SWAP3 SWAP2 POP POP JUMP JUMPDEST PUSH32 0x53656E646572206973206E6F74206120726563697069656E74206F6620746865 PUSH0 DUP3 ADD MSTORE PUSH32 0x20636865636B0000000000000000000000000000000000000000000000000000 PUSH1 0x20 DUP3 ADD MSTORE POP JUMP JUMPDEST PUSH0 PUSH2 0x1070 PUSH1 0x26 DUP4 PUSH2 0x1006 JUMP JUMPDEST SWAP2 POP PUSH2 0x107B DUP3 PUSH2 0x1016 JUMP JUMPDEST PUSH1 0x40 DUP3 ADD SWAP1 POP SWAP2 SWAP1 POP JUMP JUMPDEST PUSH0 PUSH1 0x20 DUP3 ADD SWAP1 POP DUP2 DUP2 SUB PUSH0 DUP4 ADD MSTORE PUSH2 0x109D DUP2 PUSH2 0x1064 JUMP JUMPDEST SWAP1 POP SWAP2 SWAP1 POP JUMP JUMPDEST PUSH32 0x436865636B206973206E6F742069737375656420796574000000000000000000 PUSH0 DUP3 ADD MSTORE POP JUMP JUMPDEST PUSH0 PUSH2 0x10D8 PUSH1 0x17 DUP4 PUSH2 0x1006 JUMP JUMPDEST SWAP2 POP PUSH2 0x10E3 DUP3 PUSH2 0x10A4 JUMP JUMPDEST PUSH1 0x20 DUP3 ADD SWAP1 POP SWAP2 SWAP1 POP JUMP JUMPDEST PUSH0 PUSH1 0x20 DUP3 ADD SWAP1 POP DUP2 DUP2 SUB PUSH0 DUP4 ADD MSTORE PUSH2 0x1105 DUP2 PUSH2 0x10CC JUMP JUMPDEST SWAP1 POP SWAP2 SWAP1 POP JUMP JUMPDEST PUSH0 PUSH1 0x40 DUP3 ADD SWAP1 POP PUSH2 0x111F PUSH0 DUP4 ADD DUP6 PUSH2 0xB79 JUMP JUMPDEST PUSH2 0x112C PUSH1 0x20 DUP4 ADD DUP5 PUSH2 0xBB8 JUMP JUMPDEST SWAP4 SWAP3 POP POP POP JUMP JUMPDEST PUSH32 0x416C7265616479207369676E6564000000000000000000000000000000000000 PUSH0 DUP3 ADD MSTORE POP JUMP JUMPDEST PUSH0 PUSH2 0x1167 PUSH1 0xE DUP4 PUSH2 0x1006 JUMP JUMPDEST SWAP2 POP PUSH2 0x1172 DUP3 PUSH2 0x1133 JUMP JUMPDEST PUSH1 0x20 DUP3 ADD SWAP1 POP SWAP2 SWAP1 POP JUMP JUMPDEST PUSH0 PUSH1 0x20 DUP3 ADD SWAP1 POP DUP2 DUP2 SUB PUSH0 DUP4 ADD MSTORE PUSH2 0x1194 DUP2 PUSH2 0x115B JUMP JUMPDEST SWAP1 POP SWAP2 SWAP1 POP JUMP JUMPDEST PUSH32 0x436865636B206861732065787069726564000000000000000000000000000000 PUSH0 DUP3 ADD MSTORE POP JUMP JUMPDEST PUSH0 PUSH2 0x11CF PUSH1 0x11 DUP4 PUSH2 0x1006 JUMP JUMPDEST SWAP2 POP PUSH2 0x11DA DUP3 PUSH2 0x119B JUMP JUMPDEST PUSH1 0x20 DUP3 ADD SWAP1 POP SWAP2 SWAP1 POP JUMP JUMPDEST PUSH0 PUSH1 0x20 DUP3 ADD SWAP1 POP DUP2 DUP2 SUB PUSH0 DUP4 ADD MSTORE PUSH2 0x11FC DUP2 PUSH2 0x11C3 JUMP JUMPDEST SWAP1 POP SWAP2 SWAP1 POP JUMP JUMPDEST PUSH0 DUP2 MLOAD SWAP1 POP SWAP2 SWAP1 POP JUMP JUMPDEST PUSH32 0x4E487B7100000000000000000000000000000000000000000000000000000000 PUSH0 MSTORE PUSH1 0x22 PUSH1 0x4 MSTORE PUSH1 0x24 PUSH0 REVERT JUMPDEST PUSH0 PUSH1 0x2 DUP3 DIV SWAP1 POP PUSH1 0x1 DUP3 AND DUP1 PUSH2 0x1251 JUMPI PUSH1 0x7F DUP3 AND SWAP2 POP JUMPDEST PUSH1 0x20 DUP3 LT DUP2 SUB PUSH2 0x1264 JUMPI PUSH2 0x1263 PUSH2 0x120D JUMP JUMPDEST JUMPDEST POP SWAP2 SWAP1 POP JUMP JUMPDEST PUSH0 DUP2 SWAP1 POP DUP2 PUSH0 MSTORE PUSH1 0x20 PUSH0 KECCAK256 SWAP1 POP SWAP2 SWAP1 POP JUMP JUMPDEST PUSH0 PUSH1 0x20 PUSH1 0x1F DUP4 ADD DIV SWAP1 POP SWAP2 SWAP1 POP JUMP JUMPDEST PUSH0 DUP3 DUP3 SHL SWAP1 POP SWAP3 SWAP2 POP POP JUMP JUMPDEST PUSH0 PUSH1 0x8 DUP4 MUL PUSH2 0x12C6 PUSH32 0xFFFFFFFFFFFFFFFFFFFFFFFFFFFFFFFFFFFFFFFFFFFFFFFFFFFFFFFFFFFFFFFF DUP3 PUSH2 0x128B JUMP JUMPDEST PUSH2 0x12D0 DUP7 DUP4 PUSH2 0x128B JUMP JUMPDEST SWAP6 POP DUP1 NOT DUP5 AND SWAP4 POP DUP1 DUP7 AND DUP5 OR SWAP3 POP POP POP SWAP4 SWAP3 POP POP POP JUMP JUMPDEST PUSH0 DUP2 SWAP1 POP SWAP2 SWAP1 POP JUMP JUMPDEST PUSH0 PUSH2 0x130B PUSH2 0x1306 PUSH2 0x1301 DUP5 PUSH2 0xAE8 JUMP JUMPDEST PUSH2 0x12E8 JUMP JUMPDEST PUSH2 0xAE8 JUMP JUMPDEST SWAP1 POP SWAP2 SWAP1 POP JUMP JUMPDEST PUSH0 DUP2 SWAP1 POP SWAP2 SWAP1 POP JUMP JUMPDEST PUSH2 0x1324 DUP4 PUSH2 0x12F1 JUMP JUMPDEST PUSH2 0x1338 PUSH2 0x1330 DUP3 PUSH2 0x1312 JUMP JUMPDEST DUP5 DUP5 SLOAD PUSH2 0x1297 JUMP JUMPDEST DUP3 SSTORE POP POP POP POP JUMP JUMPDEST PUSH0 SWAP1 JUMP JUMPDEST PUSH2 0x134C PUSH2 0x1340 JUMP JUMPDEST PUSH2 0x1357 DUP2 DUP5 DUP5 PUSH2 0x131B JUMP JUMPDEST POP POP POP JUMP JUMPDEST JUMPDEST DUP2 DUP2 LT ISZERO PUSH2 0x137A JUMPI PUSH2 0x136F PUSH0 DUP3 PUSH2 0x1344 JUMP JUMPDEST PUSH1 0x1 DUP2 ADD SWAP1 POP PUSH2 0x135D JUMP JUMPDEST POP POP JUMP JUMPDEST PUSH1 0x1F DUP3 GT ISZERO PUSH2 0x13BF JUMPI PUSH2 0x1390 DUP2 PUSH2 0x126A JUMP JUMPDEST PUSH2 0x1399 DUP5 PUSH2 0x127C JUMP JUMPDEST DUP2 ADD PUSH1 0x20 DUP6 LT ISZERO PUSH2 0x13A8 JUMPI DUP2 SWAP1 POP JUMPDEST PUSH2 0x13BC PUSH2 0x13B4 DUP6 PUSH2 0x127C JUMP JUMPDEST DUP4 ADD DUP3 PUSH2 0x135C JUMP JUMPDEST POP POP JUMPDEST POP POP POP JUMP JUMPDEST PUSH0 DUP3 DUP3 SHR SWAP1 POP SWAP3 SWAP2 POP POP JUMP JUMPDEST PUSH0 PUSH2 0x13DF PUSH0 NOT DUP5 PUSH1 0x8 MUL PUSH2 0x13C4 JUMP JUMPDEST NOT DUP1 DUP4 AND SWAP2 POP POP SWAP3 SWAP2 POP POP JUMP JUMPDEST PUSH0 PUSH2 0x13F7 DUP4 DUP4 PUSH2 0x13D0 JUMP JUMPDEST SWAP2 POP DUP3 PUSH1 0x2 MUL DUP3 OR SWAP1 POP SWAP3 SWAP2 POP POP JUMP JUMPDEST PUSH2 0x1410 DUP3 PUSH2 0x1203 JUMP JUMPDEST PUSH8 0xFFFFFFFFFFFFFFFF DUP2 GT ISZERO PUSH2 0x1429 JUMPI PUSH2 0x1428 PUSH2 0xCD7 JUMP JUMPDEST JUMPDEST PUSH2 0x1433 DUP3 SLOAD PUSH2 0x123A JUMP JUMPDEST PUSH2 0x143E DUP3 DUP3 DUP6 PUSH2 0x137E JUMP JUMPDEST PUSH0 PUSH1 0x20 SWAP1 POP PUSH1 0x1F DUP4 GT PUSH1 0x1 DUP2 EQ PUSH2 0x146F JUMPI PUSH0 DUP5 ISZERO PUSH2 0x145D JUMPI DUP3 DUP8 ADD MLOAD SWAP1 POP JUMPDEST PUSH2 0x1467 DUP6 DUP3 PUSH2 0x13EC JUMP JUMPDEST DUP7 SSTORE POP PUSH2 0x14CE JUMP JUMPDEST PUSH1 0x1F NOT DUP5 AND PUSH2 0x147D DUP7 PUSH2 0x126A JUMP JUMPDEST PUSH0 JUMPDEST DUP3 DUP2 LT ISZERO PUSH2 0x14A4 JUMPI DUP5 DUP10 ADD MLOAD DUP3 SSTORE PUSH1 0x1 DUP3 ADD SWAP2 POP PUSH1 0x20 DUP6 ADD SWAP5 POP PUSH1 0x20 DUP2 ADD SWAP1 POP PUSH2 0x147F JUMP JUMPDEST DUP7 DUP4 LT ISZERO PUSH2 0x14C1 JUMPI DUP5 DUP10 ADD MLOAD PUSH2 0x14BD PUSH1 0x1F DUP10 AND DUP3 PUSH2 0x13D0 JUMP JUMPDEST DUP4 SSTORE POP JUMPDEST PUSH1 0x1 PUSH1 0x2 DUP9 MUL ADD DUP9 SSTORE POP POP POP JUMPDEST POP POP POP POP POP POP JUMP JUMPDEST PUSH32 0x4E487B7100000000000000000000000000000000000000000000000000000000 PUSH0 MSTORE PUSH1 0x11 PUSH1 0x4 MSTORE PUSH1 0x24 PUSH0 REVERT JUMPDEST PUSH0 PUSH2 0x150D DUP3 PUSH2 0xAE8 JUMP JUMPDEST SWAP2 POP PUSH32 0xFFFFFFFFFFFFFFFFFFFFFFFFFFFFFFFFFFFFFFFFFFFFFFFFFFFFFFFFFFFFFFFF DUP3 SUB PUSH2 0x153F JUMPI PUSH2 0x153E PUSH2 0x14D6 JUMP JUMPDEST JUMPDEST PUSH1 0x1 DUP3 ADD SWAP1 POP SWAP2 SWAP1 POP JUMP JUMPDEST PUSH32 0x496E76616C6964206E756D626572206F6620726563697069656E747300000000 PUSH0 DUP3 ADD MSTORE POP JUMP JUMPDEST PUSH0 PUSH2 0x157E PUSH1 0x1C DUP4 PUSH2 0x1006 JUMP JUMPDEST SWAP2 POP PUSH2 0x1589 DUP3 PUSH2 0x154A JUMP JUMPDEST PUSH1 0x20 DUP3 ADD SWAP1 POP SWAP2 SWAP1 POP JUMP JUMPDEST PUSH0 PUSH1 0x20 DUP3 ADD SWAP1 POP DUP2 DUP2 SUB PUSH0 DUP4 ADD MSTORE PUSH2 0x15AB DUP2 PUSH2 0x1572 JUMP JUMPDEST SWAP1 POP SWAP2 SWAP1 POP JUMP JUMPDEST PUSH0 PUSH1 0xA0 DUP3 ADD SWAP1 POP PUSH2 0x15C5 PUSH0 DUP4 ADD DUP9 PUSH2 0xB79 JUMP JUMPDEST PUSH2 0x15D2 PUSH1 0x20 DUP4 ADD DUP8 PUSH2 0xBB8 JUMP JUMPDEST PUSH2 0x15DF PUSH1 0x40 DUP4 ADD DUP7 PUSH2 0xB79 JUMP JUMPDEST PUSH2 0x15EC PUSH1 0x60 DUP4 ADD DUP6 PUSH2 0xBD0 JUMP JUMPDEST PUSH2 0x15F9 PUSH1 0x80 DUP4 ADD DUP5 PUSH2 0xB79 JUMP JUMPDEST SWAP7 SWAP6 POP POP POP POP POP POP JUMP JUMPDEST PUSH0 PUSH2 0x160D DUP3 PUSH2 0xAE8 JUMP JUMPDEST SWAP2 POP PUSH2 0x1618 DUP4 PUSH2 0xAE8 JUMP JUMPDEST SWAP3 POP DUP3 DUP3 SUB SWAP1 POP DUP2 DUP2 GT ISZERO PUSH2 0x1630 JUMPI PUSH2 0x162F PUSH2 0x14D6 JUMP JUMPDEST JUMPDEST SWAP3 SWAP2 POP POP JUMP JUMPDEST PUSH32 0x4F6E6C79206973737565722063616E206163636570742074686520636865636B PUSH0 DUP3 ADD MSTORE POP JUMP JUMPDEST PUSH0 PUSH2 0x166A PUSH1 0x20 DUP4 PUSH2 0x1006 JUMP JUMPDEST SWAP2 POP PUSH2 0x1675 DUP3 PUSH2 0x1636 JUMP JUMPDEST PUSH1 0x20 DUP3 ADD SWAP1 POP SWAP2 SWAP1 POP JUMP JUMPDEST PUSH0 PUSH1 0x20 DUP3 ADD SWAP1 POP DUP2 DUP2 SUB PUSH0 DUP4 ADD MSTORE PUSH2 0x1697 DUP2 PUSH2 0x165E JUMP JUMPDEST SWAP1 POP SWAP2 SWAP1 POP JUMP JUMPDEST PUSH32 0x4E6F7420616C6C20726563697069656E74732068617665207369676E65642074 PUSH0 DUP3 ADD MSTORE PUSH32 0x686520636865636B000000000000000000000000000000000000000000000000 PUSH1 0x20 DUP3 ADD MSTORE POP JUMP JUMPDEST PUSH0 PUSH2 0x16F8 PUSH1 0x28 DUP4 PUSH2 0x1006 JUMP JUMPDEST SWAP2 POP PUSH2 0x1703 DUP3 PUSH2 0x169E JUMP JUMPDEST PUSH1 0x40 DUP3 ADD SWAP1 POP SWAP2 SWAP1 POP JUMP JUMPDEST PUSH0 PUSH1 0x20 DUP3 ADD SWAP1 POP DUP2 DUP2 SUB PUSH0 DUP4 ADD MSTORE PUSH2 0x1725 DUP2 PUSH2 0x16EC JUMP JUMPDEST SWAP1 POP SWAP2 SWAP1 POP JUMP JUMPDEST PUSH32 0x4E487B7100000000000000000000000000000000000000000000000000000000 PUSH0 MSTORE PUSH1 0x32 PUSH1 0x4 MSTORE PUSH1 0x24 PUSH0 REVERT INVALID LOG2 PUSH5 0x6970667358 0x22 SLT KECCAK256 0xB4 PUSH17 0xD626CF473834C9A20F65BEC8F24EA4B706 0xD8 CALLDATACOPY CALLDATALOAD 0x5E CODECOPY 0x5C 0xE2 PUSH29 0xE88B64675A64736F6C6343000817003300000000000000000000000000 "
		},
		"gasEstimates": {
			"creation": {
				"codeDepositCost": "1206200",
				"executionCost": "23357",
				"totalCost": "1229557"
			},
			"external": {
				"MAX_RECIPIENTS()": "325",
				"acceptCheck(uint256)": "infinite",
				"allRecipientsSigned(uint256)": "4915",
				"checks(uint256)": "infinite",
				"isExpired(uint256)": "2843",
				"issueCheck(uint256,address[],bytes32,uint256)": "infinite",
				"rejectCheck(uint256)": "infinite",
				"signCheck(uint256,bytes)": "infinite"
			},
			"internal": {
				"isRecipient(struct JointCheckContract.Check storage pointer,address)": "infinite"
			}
		},
		"methodIdentifiers": {
			"MAX_RECIPIENTS()": "a6980ce2",
			"acceptCheck(uint256)": "e6cc0814",
			"allRecipientsSigned(uint256)": "195c77f4",
			"checks(uint256)": "618e7bd9",
			"isExpired(uint256)": "d9548e53",
			"issueCheck(uint256,address[],bytes32,uint256)": "c25f73bd",
			"rejectCheck(uint256)": "70bc88ad",
			"signCheck(uint256,bytes)": "818a5671"
		}
	},
	"abi": [
		{
			"anonymous": false,
			"inputs": [
				{
					"indexed": false,
					"internalType": "uint256",
					"name": "checkId",
					"type": "uint256"
				}
			],
			"name": "CheckAccepted",
			"type": "event"
		},
		{
			"anonymous": false,
			"inputs": [
				{
					"indexed": false,
					"internalType": "uint256",
					"name": "checkId",
					"type": "uint256"
				}
			],
			"name": "CheckExpired",
			"type": "event"
		},
		{
			"anonymous": false,
			"inputs": [
				{
					"indexed": false,
					"internalType": "uint256",
					"name": "checkId",
					"type": "uint256"
				},
				{
					"indexed": false,
					"internalType": "address",
					"name": "issuer",
					"type": "address"
				},
				{
					"indexed": false,
					"internalType": "uint256",
					"name": "amount",
					"type": "uint256"
				},
				{
					"indexed": false,
					"internalType": "bytes32",
					"name": "contractHash",
					"type": "bytes32"
				},
				{
					"indexed": false,
					"internalType": "uint256",
					"name": "expirationDate",
					"type": "uint256"
				}
			],
			"name": "CheckIssued",
			"type": "event"
		},
		{
			"anonymous": false,
			"inputs": [
				{
					"indexed": false,
					"internalType": "uint256",
					"name": "checkId",
					"type": "uint256"
				},
				{
					"indexed": false,
					"internalType": "address",
					"name": "recipient",
					"type": "address"
				}
			],
			"name": "CheckRejected",
			"type": "event"
		},
		{
			"anonymous": false,
			"inputs": [
				{
					"indexed": false,
					"internalType": "uint256",
					"name": "checkId",
					"type": "uint256"
				},
				{
					"indexed": false,
					"internalType": "address",
					"name": "recipient",
					"type": "address"
				}
			],
			"name": "CheckSigned",
			"type": "event"
		},
		{
			"inputs": [],
			"name": "MAX_RECIPIENTS",
			"outputs": [
				{
					"internalType": "uint256",
					"name": "",
					"type": "uint256"
				}
			],
			"stateMutability": "view",
			"type": "function"
		},
		{
			"inputs": [
				{
					"internalType": "uint256",
					"name": "checkId",
					"type": "uint256"
				}
			],
			"name": "acceptCheck",
			"outputs": [],
			"stateMutability": "nonpayable",
			"type": "function"
		},
		{
			"inputs": [
				{
					"internalType": "uint256",
					"name": "checkId",
					"type": "uint256"
				}
			],
			"name": "allRecipientsSigned",
			"outputs": [
				{
					"internalType": "bool",
					"name": "",
					"type": "bool"
				}
			],
			"stateMutability": "view",
			"type": "function"
		},
		{
			"inputs": [
				{
					"internalType": "uint256",
					"name": "",
					"type": "uint256"
				}
			],
			"name": "checks",
			"outputs": [
				{
					"internalType": "uint256",
					"name": "amount",
					"type": "uint256"
				},
				{
					"internalType": "address",
					"name": "issuer",
					"type": "address"
				},
				{
					"internalType": "bytes32",
					"name": "contractHash",
					"type": "bytes32"
				},
				{
					"internalType": "uint256",
					"name": "expirationDate",
					"type": "uint256"
				},
				{
					"internalType": "bool",
					"name": "isAccepted",
					"type": "bool"
				},
				{
					"internalType": "enum JointCheckContract.CheckState",
					"name": "state",
					"type": "uint8"
				},
				{
					"internalType": "uint256",
					"name": "signedCount",
					"type": "uint256"
				}
			],
			"stateMutability": "view",
			"type": "function"
		},
		{
			"inputs": [
				{
					"internalType": "uint256",
					"name": "checkId",
					"type": "uint256"
				}
			],
			"name": "isExpired",
			"outputs": [
				{
					"internalType": "bool",
					"name": "",
					"type": "bool"
				}
			],
			"stateMutability": "view",
			"type": "function"
		},
		{
			"inputs": [
				{
					"internalType": "uint256",
					"name": "amount",
					"type": "uint256"
				},
				{
					"internalType": "address[]",
					"name": "recipients",
					"type": "address[]"
				},
				{
					"internalType": "bytes32",
					"name": "contractHash",
					"type": "bytes32"
				},
				{
					"internalType": "uint256",
					"name": "expirationDate",
					"type": "uint256"
				}
			],
			"name": "issueCheck",
			"outputs": [
				{
					"internalType": "uint256",
					"name": "",
					"type": "uint256"
				}
			],
			"stateMutability": "nonpayable",
			"type": "function"
		},
		{
			"inputs": [
				{
					"internalType": "uint256",
					"name": "checkId",
					"type": "uint256"
				}
			],
			"name": "rejectCheck",
			"outputs": [],
			"stateMutability": "nonpayable",
			"type": "function"
		},
		{
			"inputs": [
				{
					"internalType": "uint256",
					"name": "checkId",
					"type": "uint256"
				},
				{
					"internalType": "bytes",
					"name": "signature",
					"type": "bytes"
				}
			],
			"name": "signCheck",
			"outputs": [],
			"stateMutability": "nonpayable",
			"type": "function"
		}
	]
}